:1000000040140020C11E00006F740000AD1E0000EF
:10001000AD1E0000AD1E0000AD1E0000000000007F
:10002000000000000000000000000000C91C0000EB
:10003000AD1E000000000000751C0000AD1E000099
:100040002D1C00002D1C00002D1C00002D1C00008C
:100050002D1C00002D1C00002D1C00002D1C00007C
:100060002D1C00002D1C00002D1C00002D1C00006C
:100070002D1C00002D1C00002D1C00002D1C00005C
:100080002D1C00002D1C00002D1C00002D1C00004C
:100090002D1C00002D1C00002D1C00002D1C00003C
:1000A0002D1C00002D1C00002D1C00002D1C00002C
:1000B0002D1C00002D1C00002D1C00002D1C00001C
:1000C0002D1C00002D1C00002D1C00002D1C00000C
:1000D0002D1C00002D1C00002D1C00002D1C0000FC
:1000E0002D1C00002D1C00002D1C00002D1C0000EC
:1000F0002D1C00002D1C00002D1C00002D1C0000DC
:1001000053B94AB9002908BF00281CBF4FF0FF317E
:100110004FF0FF3000F06CB9ADF1080C6DE904CE82
:1001200000F006F8DDF804E0DDE9022304B07047D2
:100130002DE9F047089E0D4604468E46002B40F000
:1001400082808A42174646D9B2FA82F24AB1C2F197
:10015000200105FA02F320FA01F1974041EA030E6B
:1001600094404FEA1748230CBEFBF8FCB9B208FBD9
:100170001CEE43EA0E430CFB01F098420AD9FB182F
:100180000CF1FF3580F01681984240F21381ACF1FA
:10019000020C3B441B1AA4B2B3FBF8F008FB10336B
:1001A00044EA034400FB01F1A14209D93C1900F1E2
:1001B000FF3380F00181A14240F2FE8002383C44CE
:1001C000641A40EA0C4000211EB1D4400023C6E965
:1001D0000043BDE8F08702B9FFDEB2FA82F2002ADE
:1001E0004FD1CB1B4FEA174E1FFA87F80121B3FB03
:1001F000FEFC250C0EFB1C3345EA034508FB0CF303
:10020000AB4207D97D190CF1FF3002D2AB4200F2AC
:10021000E7808446ED1AA3B2B5FBFEF00EFB105545
:1002200043EA054408FB00F8A04507D93C1900F152
:10023000FF3302D2A04500F2D7801846A4EB080491
:1002400040EA0C40C0E78B4208D9002E00F0AF8096
:100250000021C6E900050846BDE8F087B3FA83F13E
:1002600000294BD1AB4202D3824200F2B780841AFC
:1002700065EB030301209E46002EAAD0C6E9004E7E
:10028000A7E7C2F1200C01FA02F3974020FA0CF024
:100290004FEA174E21FA0CFC1843BCFBFEF1050C8B
:1002A0000EFB11CC1FFA87F845EA0C4501FB08F359
:1002B000AB4204FA02F409D97D1901F1FF3C80F048
:1002C0008B80AB4240F2888002393D44EB1A85B204
:1002D000B3FBFEF00EFB103345EA034500FB08F3C9
:1002E000AB4207D97D1900F1FF3C71D2AB426FD907
:1002F00002383D44EB1A40EA014178E7C1F1200C95
:100300008B4022FA0CF71F4320FA0CF405FA01F394
:100310004FEA174E25FA0CF51C43230CB5FBFEF9EA
:100320001FFA87F80EFB195543EA054509FB08FA41
:10033000AA4502FA01F200FA01F308D97D1909F180
:10034000FF3047D2AA4545D9A9F102093D44A5EBA2
:100350000A05A4B2B5FBFEF00EFB105544EA0544B5
:1003600000FB08F8A04507D93C1900F1FF352DD254
:10037000A0452BD902383C4440EA0940A4EB0804CC
:10038000A0FB02894C45C6464D4619D316D05EB136
:10039000B3EB0E0264EB050404FA0CFCCA404CEA11
:1003A0000202CC40C6E900240021BDE8F0873146B6
:1003B00030460EE7AC46EDE6184601E74345E6D287
:1003C000B8EB020E69EB07050138E0E72846D3E7F2
:1003D00060468FE78146BAE7614677E708464BE714
:1003E000ACF1020C3D4415E702383C4426E700BF5F
:1003F000704700BF08B507F078FA0146034807F0D8
:1004000010F8034B01221A6008BD00BFF67F000000
:100410003003002008B507F068FA0146034807F0EA
:1004200000F8034B01221A6008BD00BF0B800000DA
:100430003403002008B507F058FA0146034806F0D7
:10044000F0FF034B01221A6008BD00BF20800000AE
:100450003803002008B507F048FA0146034806F0C3
:10046000E0FF034B01221A6008BD00BF3580000089
:100470003C03002008B507F038FA0146034806F0AF
:10048000D0FF034B01221A6008BD00BF4A80000064
:100490004003002008B507F028FA0146034806F09B
:1004A000C0FF034B01221A6008BD00BF5F8000003F
:1004B0004403002008B507F018FA0146034806F087
:1004C000B0FF034B01221A6008BD00BF748000001A
:1004D0004803002008B507F008FA0146034806F073
:1004E000A0FF034B01221A6008BD00BF89800000F5
:1004F0004C03002043682DE9F0411B68D0F80880C8
:10050000076901268E401E4204460D460ED10E4953
:100510000E4A0F4840F2FD2306F083FF0D4806F017
:1005200080FF0A4840F2FD2106F0A7FE3B6823EA5F
:1005300006063E60D8F80030294620464FF48872FF
:10054000BDE8F041184700BFC88000009E80000051
:10055000068100002381000043682DE9F0411B68FB
:100560008768D0F8108001268E401E4204460D4652
:100570000ED11049104A114840F29D2306F051FF58
:100580000F4806F04EFF0C4840F29D2106F075FE24
:10059000D8F800301E42BE6929462046B44618BF2E
:1005A0004FF40033BDE8F04108BF4FF480234FF40F
:1005B000A0326047C88000009E80000006810000D5
:1005C000238100002DE9F84F7C4804F047FA0446E7
:1005D00020B9BDE8F84F7A4806F023BF794806F005
:1005E00020FF0B212046FFF785FF051E05DA764820
:1005F0002946BDE8F84F06F014BF0C212046FFF74E
:1006000079FF002802DA71482946F2E718212046CE
:10061000FFF770FF002802DA6D482946E9E7192143
:100620002046FFF767FF002802DA6A482946E0E71C
:1006300003212046FFF75EFF002802DA66482946BC
:10064000D7E704212046FFF755FF002802DA634868
:100650002946CEE71C212046FFF74CFF002802DA8E
:100660005F482946C5E71D212046FFF743FF0028C4
:1006700002DA5C482946BCE70B212046FFF76CFFF5
:10068000014608B15848B4E70C212046FFF764FF43
:10069000064610B155480021ABE718212046FFF768
:1006A0005BFF054610B152483146A2E719212046AA
:1006B000FFF752FF064610B14E48294699E703213D
:1006C0002046FFF749FF054610B14B48314690E7F9
:1006D00004212046FFF740FF064610B1474829464F
:1006E00087E71C212046FFF737FF054610B1444835
:1006F00031467EE71D212046FFF72EFF10B141480D
:10070000294676E74049414BDFF82CB14B604FF466
:1007100000638B603E4BDFF824A1CBF804304FF42C
:100720008053CBF808303B4BDFF81491CAF8043003
:100730004FF08073CAF80830374BDFF80881C9F8EA
:1007400004304FF00073C9F80830344B344FC8F808
:1007500004300823C8F80830324B334E7B60102336
:10076000BB60324B324D73604FF08053B360314BFE
:100770006B6020464FF00053AB6006F071FD5946A8
:10078000204606F06DFD5146204606F069FD4946BB
:10079000204606F065FD4146204606F061FD3946DB
:1007A000204606F05DFD3146204606F059FD2946FB
:1007B0002046BDE8F84F06F053BD00BF358100006C
:1007C0003C8100005D8100007A810000A181000071
:1007D000C8810000EF810000168200003D82000009
:1007E000648200008B820000B2820000E982000077
:1007F00020830000578300008E830000C583000023
:10080000FC83000033840000D0020020F5030000C8
:1008100015040000350400005504000075040000B4
:100820000C0300209504000018030020B50400000C
:1008300024030020D5040000DC020020E802002090
:10084000F4020020000300202DE9F04F634BDFF895
:10085000D49193E807008BB00C3304AC84E8070014
:1008600093E807000AAB03E907000020804605462D
:1008700006465B4B5B49D3F800A0D9F800300293E1
:10088000594B1A6800920A680392584A1468584AE9
:10089000D2F800B0574A1768574A013812680192D7
:1008A000042804D8DFE800F0466E7684860086B916
:1008B0005248414606F0B5FD0AAB03EB85065048A9
:1008C00056F80C1C06F0ADFD56F8181C4D4806F005
:1008D000A8FD012C2AD0BBF1010F26D0012F27D073
:1008E000019B012B0BBF0124002400260126039B42
:1008F000012B029B04BF02240026012B09D10AAB65
:1009000003EB8502002652F8184C4445D4BF03245B
:100910000424009B002B1CBF05240026BAF1000F05
:100920001CBF052400262046A3E75C460026DEE720
:100930003C46FBE7012C04D1334806F072FD08F178
:100940000A08BBF1010F04D1304808F1140806F081
:1009500068FD012F04D12E4808F1320806F061FD30
:10096000019B012B04D12B4808F1640806F059FDC6
:100970001E4B00241C601E4B1C601E4B1C601E4B3B
:100980001C60D0E7244806F04CFD164900240C609A
:10099000A046C8E70AAB03EB8502204852F8182CA2
:1009A000A8EB0208002406F03CFDC9F80040BAE7B5
:1009B0001B48F7E7009A012A05D1022D02DC013518
:1009C000032D00D10025BAF1010F03D1013D6A1CAE
:1009D00008BF0225024A00241460D1E7C07D000050
:1009E000300300203C030020380300204003002097
:1009F00044030020480300204C0300206A840000C8
:100A00007E84000099840000AA840000C78400004E
:100A1000E4840000018500001F8500003885000087
:100A20004D850000340300202DE9F04F91B08B4636
:100A3000029092461C4600259AF8000008B9284604
:100A40005EE325280AF1010707D0029B5946984723
:100A50000028C0F25583013510E2182200210AA8AF
:100A600006F040FD9AF80130252B78D000229446FC
:100A7000164696461046394617F8013B2B2B00F0D8
:100A80009D8000F29480202B00F09B80232B00F0AF
:100A90009A8028B19DF8300040F004008DF83000B5
:100AA000BEF1000F05D09DF8300040F008008DF831
:100AB00030002EB19DF8300040F010008DF830006D
:100AC000BCF1000F05D09DF8300040F020008DF8FB
:100AD00030002AB19DF8302042F040028DF83020DD
:100AE0009DF8302002F04400442803D16FF38612B1
:100AF0008DF830209DF830202A2B42F080028DF8AE
:100B000030207BD19DF8312042F001024B1C8DF842
:100B100031201A782E2A9DF831200CBF01210021A6
:100B200061F341028DF8312074D15A782A2A6AD0B3
:100B3000013300210A26184610F8012BA2F13007D4
:100B4000092F40F28E809DF830200E91C2F34000B4
:100B500040EAD17161F341028DF830205AE00AF188
:100B600002078DF833309DF83130D90740F14981C3
:100B700054F8049BB9F1000F07DA9DF8302042F0D9
:100B800004028DF83020C9F100095A0740F1428172
:100B900054F8048BB8F1000F80F241819DF8313098
:100BA0006FF341038DF831304FF0FF3837E12D2BD3
:100BB0000CD0302B7FF46DAF01225CE74FF0010EBB
:100BC00059E7012657E74FF0010C54E7012052E79F
:100BD0000CFB0202303A33461E4616F8010BA0F118
:100BE0003007092FF4D9994293D09DF830100D9217
:100BF000D20F62F341018DF830108AE70B460022D4
:100C00004FF00A0CE8E79DF8312042F004028DF81D
:100C1000312002331F4617F8012B6C2A41D025D80A
:100C2000682A2BD06A2A46D04C2A4CD01F4617F887
:100C3000012B9DF831308DF83320782A00F2D980CD
:100C4000572A4DD8412A03D0453A022A00F2D180D2
:100C50009DF83230042262F302038DF83230012312
:100C60009EE006FB01213039034664E7742A26D052
:100C70007A2ADBD19DF8313006220DE05A78682AB5
:100C80009DF8312006D1012161F3C6028DF8312093
:100C90009F1CCCE71346022262F3C6038DF8313065
:100CA000C5E75A786C2A9DF8312001D10421EBE781
:100CB00013460322F0E79DF831300522ECE79DF85A
:100CC00031300722E8E7BDF8303023F4F04323F059
:100CD000020343F4804343F00203ADF83030A6E74B
:100CE000A2F15801202900F2848001A050F821F0DF
:100CF000B50D0000F30D0000F30D0000F30D000032
:100D0000F30D0000F30D0000F30D0000F30D0000E3
:100D1000F30D0000510C0000F30D0000B50D0000B4
:100D2000750D0000510C0000510C0000510C00002A
:100D3000F30D0000750D0000F30D0000F30D000031
:100D4000F30D0000F30D0000BD0D0000B50D000017
:100D5000D90D0000F30D0000F30D0000D90D0000C7
:100D6000F30D0000B50D0000F30D0000F30D0000C1
:100D7000B50D00009DF83210012003F0780360F3F8
:100D80000201402B8DF8321002BF9DF8301041F067
:100D900001018DF83010632A31D1003B18BF0123C7
:100DA0009DF83020C2F340010B4363F341028DF8FC
:100DB0003020D8E69DF832100220DEE79DF8322080
:100DC00003F07803A3F14000032161F302024342E0
:100DD0008DF832204341E3E79DF83220032113F0E0
:100DE000780F61F302028DF8322014BF0123002333
:100DF000D6E79DF8303043F001038DF83030002302
:100E0000CEE79DF93020002AB4BFDDF834904FF0D2
:100E1000FF39BAE69B077FF5C7AEDDF838809DF84D
:100E200031200023CDE90D339DF8323003F0070364
:100E3000012BC2F3C30236D1D31E042B20D8DFE826
:100E400003F00307071F1F0054F8040BC11704E049
:100E5000073424F00704F4E80201CDE90A019DF803
:100E6000303013F0030654D002983B4652465946A0
:100E700006F055FA0028C0F243810544BA46DBE586
:100E800054F8040B012A4FEAE071CDE90A0105D1BB
:100E90009DF828300A9300230B93E0E7022ADED165
:100EA000BDF92800D2E7022B23D1D31E042B13D87F
:100EB000DFE803F0030A0A12120020680A900021FA
:100EC000231D0B911C46CAE7073424F00703F3E8FF
:100ED0000201CDE90A01F5E754F8043B0A93012A1F
:100EE0004FF000030B93D3D0022AB8D1BDF82830BD
:100EF000D0E7042B07D1073424F00704F4E80201FB
:100F0000CDE90A01ABE7032B04BF54F8043B0A9375
:100F1000A5E79DF833007828B0D8622822D8252884
:100F20003FF493AD5828A9D10DF126030093DDE9D4
:100F30000A0104AB0CAA06F0A7F98246B8F1000F2B
:100F40000DF126000CDB9DF83020A0EB0A036FF3B7
:100F5000861298458DF8302002D9A8EB03030D9333
:100F600080463DE06338152888D801A151F820F06B
:100F7000F10F0000551000007D0E00007D0E0000F6
:100F80007D0E00007D0E0000551000007D0E00005B
:100F90007D0E00007D0E00007D0E0000B3100000ED
:100FA00081100000851000007D0E00007D0E000005
:100FB000C90F00007D0E0000811000007D0E0000B2
:100FC0007D0E000081100000B8F1000FDDF828A0B0
:100FD0000ADB4146504606F065FA0AEB0008002697
:100FE000BAF1000F0CD149E7504606F054FAF4E785
:100FF0000A9B8DF8103000260DF111080DF1100A32
:10100000A8EB0A0306B101339DF83220D0066BD558
:10101000023352060D9948BF0E9A0B4448BF9B18E5
:10102000B9F1000F79DD9DF83020A9EB0309C2F377
:1010300080030393530770D4500664D546B1029BD6
:1010400059463046984700285ADB039B01351E4617
:10105000302359E01E0711D413F0100618BF2026C4
:10106000DDE90A23002A73F10001BFF65DAF5242A9
:1010700063EB4303CDE90A232D2655E72B26EFE743
:10108000002651E70A9848B30DF1260300930CAAF5
:1010900004AB002106F0F8F8BDF8323003F0EF039E
:1010A00043F4F04343F010038246ADF8323000269B
:1010B00044E70A9B072A3FF6E1AEDFE802F00D04A1
:1010C000060D08080D0D1D70D8E61D80D6E62846D1
:1010D000E917C3E90001D1E61D60CFE6DFF8C4805F
:1010E0000646A8F1050A8BE7110748BF013390E7D0
:1010F000184603935946029B98470028039B04DA3D
:1011000011B0BDE8F08F20234D444A46002AA5EBDC
:10111000090109F1FF39EBDC0D4636B1029B594656
:10112000304698470028EBDB01359DF83230D90670
:1011300001D41A0706D5029B59463020984700284B
:10114000DEDB01359DF83230DB0607D59DF8330034
:10115000029B594698470028D2DB01350D9E2E444C
:10116000731B002B16DC029843465246594606F084
:10117000D6F80028C4DB0544A944A9EB0503002BDD
:101180007FF77CAE029B5946202098470028B7DBAA
:101190000135F2E7029B5946302098470028AFDB23
:1011A0000135DDE76E85000038B54468816004F0E4
:1011B0000304032C054602D02CB1002000E0006897
:1011C00000236B6038BD054A05490648452306F0F3
:1011D00028F90248452106F050F8EEE76F85000037
:1011E0005A8D000006810000014805F0A7BE00BF2F
:1011F000E87D000008B5D0B14368042B11D100226E
:101200000368BFF35B8F53E8001F012903D143E854
:1012100000200028F7D1BFF35B8F074808BF1046B6
:1012200008BD3BB1006803F071FF0020F8E76FF4E0
:10123000E040F5E70148F3E7E98FFFFFEA8FFFFFA2
:1012400010B5044618B90D4B0D485B6898476168A6
:1012500008290DD031F004030AD011F0020108D0A2
:101260000848214603F0EEFD00232360002363605D
:1012700010BD2068142206F035F9F7E7DC000020E5
:10128000928500005003002010B5044618B9164B93
:1012900016485B6898476368042B23D0082B21D03D
:1012A000CBB92368BBB912484FF0FF324FF0FF3380
:1012B000214603F05BFD08B923681BB90A4B0D48B2
:1012C0005B68984720681422002106F00BF96368D8
:1012D00043F002036360206806F0E5FB636843F0B7
:1012E0000103636010BD00BFDC0000209285000098
:1012F00050030020B885000008B508B34368042BEC
:1013000010D101220368BFF35B8F53E8001F00294F
:1013100003D143E800200028F7D1BFF35B8F0BD146
:10132000002008BD53B100684FF0FF324FF0FF338B
:1013300003F0ECFD0028F3D00348F2E70348F0E7A0
:101340006FF4E040EDE700BFE98FFFFFEA8FFFFF9A
:1013500008B5064906484023142206F088FBBDE87C
:1013600008400449044805F04BBE00BF700300204C
:1013700050030020007E0000F07D00002DE9F04FBA
:10138000B0F81C9085B019F0080F0446039222D0E3
:1013900001290CBF49F0100949F02009A0F81C9060
:1013A0001434204605F018FA68B99F4A9F49A048AE
:1013B000AC2306F036F89F48214606F032F89A48EA
:1013C000AC2105F05AFF039B83F31188BFF36F8FA5
:1013D00005B0BDE8F08F984FDFF8548209F0070997
:1013E000022906D1204605F0C6FF0028D8D00128E2
:1013F00068D1D4F818B0A38BBBF1000F0ADA00262D
:10140000256823F00703C4E9006643F00103A383C2
:10141000019627E003F00702511F012934D800216B
:1014200023F00703062A25689BB2C4E900110CD1FA
:101430008D422A4638BF0A462AB1E18B1268013133
:10144000E183002AF8D143F00203A383204605F08C
:1014500092FF06460028DBD0A38B43F02003A38332
:1014600000230193A38B03F007024A45029203D0A5
:10147000A268002A40F0F0801DB9019A002A00F00D
:1014800036814FF00009E9E0042A0ED123F007036A
:101490009AB2A283204605F06EFF054618B142F0CD
:1014A0002002A28300250195DCE74046634940F213
:1014B0001B133A4605F0B5FF40F21B11384605F004
:1014C000DCFEEFE7032835D1B9F1000F0BD05C4902
:1014D00040464FF4AB733A4605F0A3FF4FF4AB71AF
:1014E000384605F0CAFE23685BB95649404640F2CB
:1014F00057133A4605F095FF40F25711384605F06C
:10150000BCFE23691B6801935BB94F4940464FF409
:10151000AD733A4605F085FF4FF4AD71384605F0DE
:10152000ACFEA38B23F0070343F00603A38300253F
:10153000AB4697E7042832D1B9F1020F0BD04349EB
:10154000404640F25D133A4605F06BFF40F25D11F4
:10155000384605F092FEE38B5BB13D4940464FF4BF
:10156000AF733A4605F05DFF4FF4AF71384605F0B2
:1015700084FE23695B6801935BB93349404640F2BE
:1015800061133A4605F04DFF40F26111384605F00F
:1015900074FEA38B23F0070343F00403C6E705287A
:1015A00032D1B9F1010F0BD02A4940464FF4B27342
:1015B0003A4605F036FF4FF4B271384605F05DFE4D
:1015C00023685BB91F49404640F265133A4605F06F
:1015D00028FF40F26511384605F04FFE23699B68ED
:1015E00001935BB9184940464FF4B4733A4605F08D
:1015F00018FF4FF4B471384605F03FFEA38B23F07B
:10160000070343F0050391E70C4940F26B133A4698
:10161000404605F006FF002540F26B11384605F004
:101620002CFE019584E700BF88860000AE8600008E
:1016300006810000C5860000E58500005A8D000087
:101640000786000013860000368600004D860000E5
:1016500063860000728600004FF0010943F0080322
:1016600004F1140AA383504605F0B6F868B93A4A63
:101670003A49AC23404605F0D4FE3948514605F0BE
:10168000D0FE3548AC2105F0F8FD039B83F31188AB
:10169000BFF36F8FB9F1000F38D1002D4BD1019BF3
:1016A00013B13049204698474FF02003EFF3118BD8
:1016B00083F31288BFF36F8F5046CDF80CB005F05E
:1016C0007DF868B9244A28498123404605F0A9FEDF
:1016D0002648514605F0A5FE1F48812105F0CDFDA5
:1016E000504605F089F8A38B23F00803A383A38B4E
:1016F000DA0628D523F01003A3830121B4F81C9047
:1017000009F0070900297FF46BAE49E6A1680029BA
:10171000C3D00B68029A002B38BF002399464B6850
:1017200020461E465B46B047B9F1000FB5D0D9F848
:1017300000304946EEE72946029A2D685B4620466E
:1017400005F035FEA9E713F020011EBF23F02003AA
:10175000A3830221D2E700BF88860000AE86000086
:10176000C586000071170000DA860000EF860000D1
:10177000F8B504460D4600F114064FF02003EFF3D0
:10178000118783F31288BFF36F8F304605F016F888
:1017900068B90C4A0C490D48812305F042FE0C48FB
:1017A000314605F03EFE0748812105F066FD3046D2
:1017B00005F022F8A5613A4620460121BDE8F8402F
:1017C000FFF7DCBD88860000DA8600000681000095
:1017D000EF8600002DE9F04704460F4605F0FDFDB9
:1017E000051E5EDB04F114094FF02003EFF3118AAC
:1017F00083F31288BFF36F8F484604F0DFFF68B9A8
:10180000384A39493948812305F00BFE38484946A2
:1018100005F007FE3348812105F02FFD484604F00E
:10182000EBFFE38BA28B4FF6FF718B4202F00706B2
:1018300050D0022E24D10133E38335464FF0010806
:10184000484604F0C9FF68B9264A2A492748AC230C
:1018500005F0E7FD2848494605F0E3FD2148AC21A5
:1018600005F00BFD8AF31188BFF36F8FB8F1000FFD
:1018700017D0002332463946204605F098FD10E087
:10188000930701D0062E0FD100233B606368F3B9A4
:10189000C4E900773546FEB9524602212046FFF7DB
:1018A0006DFD2846BDE8F087052E18D0012E0BD01F
:1018B00012490E48124A40F2C91305F0B2FD104811
:1018C00040F2C91105F0D9FC6FF0040504E01F6077
:1018D0006760DFE76FF00A054FF00008B0E76FF0D0
:1018E0008505F9E788860000DA8600000681000099
:1018F000EF860000AE860000C586000072860000FC
:10190000E58500002DE9F84305464FF02003EFF38D
:10191000118683F31288BFF36F8F234804F04EFFC4
:1019200068B9224A22492348812305F07AFD1E49DD
:10193000214805F076FD1D48812105F09EFC1A48DE
:1019400004F05AFF1D4B1C68002C38BF00249CB1CA
:101950001B4FDFF878804FF00C09D4E90132002DDD
:1019600008BF13462BB198F8142009FB02F2B85CAB
:1019700098472468002CF0D10B4804F02DFF68B97B
:101980000A4A10490B48AC2305F04BFD06490E48A6
:1019900005F047FD0548AC2105F06FFC86F3118882
:1019A000BFF36F8FBDE8F8837008002088860000C1
:1019B000DA86000006810000EF860000740800202F
:1019C00080080020AE860000C5860000000A0020C6
:1019D00000F01F0301229A400A4BBFF35B8F4009BE
:1019E00003EB800050E8003F43EA020140E8001C9E
:1019F000BCF1000FF6D1BFF35B8F1A4214BF012078
:101A0000002070478C08002030B51D4B1D7DBFF3B2
:101A10005B8F05F01F0301229A401A4B690985B0BC
:101A2000D04303EB810353E8001F01EA000443E8BD
:101A3000004CBCF1000FF6D1BFF35B8F114217D001
:101A4000114C0C2202FB054207CA01AB83E80700D8
:101A50000E4A7AB193E8070005F060FD0020FFF719
:101A600051FF0C236B430022E118E250C1E901222F
:101A700005B030BD82F31188BFF36F8FEEE700BF72
:101A8000000A00207C080020800800201D7500004E
:101A90002DE9F041374BDFF8F4801C7D88B0074614
:101AA0002046FFF795FF60B96E463A46214630461C
:101AB00005F0C4FC96E807000C2505FB048585E8C5
:101AC00007000C23634308EB030218F803006509C1
:101AD00004F01F06C8B37B1C0FD0D2F808E02648DC
:101AE000264A4FF4004C00210023ECFB0E01FEF7C8
:101AF00007FB0121381A05F041F803F08FFC0120A3
:101B0000FFF700FFBFF35B8F1D4B0122B24003EBD9
:101B1000850353E8001F114343E800100028F8D163
:101B2000BFF35B8F0C2303FB048494E8070005AB31
:101B300083E80700134A1AB193E8070005F0DBFCBD
:101B4000FFF762FF04F062F901200F4ABFF35B8FD9
:101B50000123B340DB4302EB850555E8002F1A4013
:101B600045E800210029F8D1BFF35B8F08B0BDE83C
:101B7000F08100BF000A00203F420F0040420F00EA
:101B80007C080020F77400008C08002080080020EA
:101B90000B6801330B60014B1B68184720000020C5
:101BA000014B1860704700BF2000002007B50B46AE
:101BB000002102460191034801A9FEF735FF03B059
:101BC0005DF804FB911B000008B54FF02002EFF315
:101BD000118382F31288BFF36F8F00F0A1FC0348DA
:101BE00005F01FFC00F00AF8FCE700BF07870000C3
:101BF000014910220A60704710ED00E072B64040C3
:101C000080F31188BFF36F8FBFF34F8F30BF62B681
:101C1000BFF36F8F704700BF72B6494081F31188E0
:101C200020BF80F3118862B6704700BF01B572B65D
:101C30000B4A906900281EBF0021916105F010FF3A
:101C400062B6EFF30580A0F110004FEAC00005492D
:101C5000014409C99847BDE801400349084700000D
:101C6000000A0020187C0000911E000030BFFFF722
:101C7000FDBF00BF12498A684FF030001044EFF3F7
:101C8000098C80E8F01F202080F31288BFF36F8F4B
:101C90000C4F4FF00066CA698A603E60506F0023A7
:101CA000536780F3118804B5104600F0E7FABDE8E9
:101CB000044002F1300090E8F01F8CF3098870476F
:101CC000000A002004ED00E01EF0040F0CBFEFF34B
:101CD0000880EFF30980816911F8021C0229FFD006
:101CE00001B505F0BCFB01BD43B2002B08DB0122AE
:101CF00000F01F0002FA00F05B09024A42F82300DC
:101D0000704700BF00E100E0054B420900F01F00F2
:101D100053F82220012303FA00F01040704700BF5F
:101D200000E100E070B54C1C072C05460E460FD9AB
:101D3000114A12491248592305F073FB11483146E4
:101D400007232A4605F06DFB0B48592105F095FA4B
:101D50006BB2002BACBF03F160430B4B4FEA441452
:101D6000B8BF05F00F05E4B2AABF03F561435C55A7
:101D700083F8004370BD00BF308700006687000015
:101D8000068100008187000014ED00E00B4A08B5D1
:101D90000B4B22F07F029A60BFF34F8FBFF36F8F20
:101DA000D3F8882022F47002C3F8882002F026FFBE
:101DB00005F050F800F0F6F902F02AFF00000000EC
:101DC00000ED00E0094A0A499368096899670949E2
:101DD00058674B6843F080534B60002383F31188AE
:101DE000BFF36F8F9368986F704700BF000A0020A1
:101DF000507F000000ED00E042F8203C009B42F8DC
:101E00001C3C0A49019B42F8183C029B42F8143CD6
:101E100021F001014FF0807342F8043C42F8081CA5
:101E20000023203A02654367704700BF47740000F3
:101E30000B4A0346906890B113F1160F406E05D01F
:101E4000A0F120029A4206D8834204D281422CBFDC
:101E50000021012100E00021002908BF0020704777
:101E6000000A002008B5094B98600D46144600F0A2
:101E700005FA204685F30988002163B681F31188AD
:101E8000BFF36F8F0022002305F0DDFA000A002067
:101E9000044B9968D869884203D003494FF08052B7
:101EA0000A607047000A002004ED00E0EFF30880AC
:101EB000EFF3098101B5724600F0AEF801BD00BF35
:101EC000002080F31488BFF36F8F05F023FE0020FD
:101ED0000D490860BFF34F8F0C4880F3088800F06D
:101EE0007DF9202080F3118809484FF402614018E1
:101EF00080F30988EFF314800221084380F31488EB
:101F0000BFF36F8FFFF742FF94ED00E04014002015
:101F1000C0150020234B70B515469A6A9A6A9A6AD2
:101F2000044690071AD5586B9A6A120616D519B14D
:101F30009A6A22F080029A629A6A9A6A9A6AD60625
:101F40000FD49B6A99070CD40024164A936A43F075
:101F5000FF03936200232B70204670BD6FF01500C5
:101F6000EAE7104E73681A05EED52146FFF760FFC9
:101F7000044618B180F309880224E6E7B36ADB0659
:101F8000E2D5094A09490A4840F2491305F049FADD
:101F9000084805F046FA044840F2491105F06DF989
:101FA000D3E700BF00ED00E0C1870000FB87000021
:101FB00006810000458800000D4B9A6A9A6A9A6A69
:101FC000920508D59A6B9A6A120404D518B19A6AD8
:101FD00022F400429A62064B9A6A9A6AD20558BF66
:101FE0009A6A9A6A002042F47F429A6208707047A7
:101FF00000ED00E0074B9A6A9A6A9A6A9A6A9A6AAE
:102000009A6A9A6A6FEA02426FEA12429A62002062
:10201000704700BF00ED00E070B5544B5C688AB0BB
:102020000D46C4F30804002686F31188BFF36F8FB2
:1020300002F07F43B3F17F4F08D102F00C03082B6D
:1020400004D012075CBF054601267DB9484A4949BC
:10205000494840F2F23305F0E4F9484805F0E1F967
:10206000434840F2F23105F008F9002500238DF8CD
:102070000730E31E032B72D8DFE803F002696D49D5
:102080003A4BDC6A14F0020469D1DA6A002A18DBE0
:10209000DB6A5B004ED5AB6933F8022C4DF6027358
:1020A0009A420DD003F1604303F626631B780BB30D
:1020B0000DF1070201212846FFF72CFF044600E03E
:1020C0002C689DF807309BB92022294602A805F00C
:1020D000FEF9099B002E44D0C3F3080222B96FEA2F
:1020E00053236FEA4323099302A9204605F0B5F96B
:1020F0000AB070BD224B1B782BB10DF107010120F6
:10210000FFF75AFFDAE71F4B1B889BB213B1FFF7AB
:1021100071FFD3E71C49164A174840F2C32305F064
:1021200080F91A4805F07DF940F2C321104805F006
:10213000A4F8C6E714490E4A0F4840F2C72305F039
:1021400070F9134805F06DF940F2C721EEE70DF183
:1021500007020021AFE70DF107010020D0E70024BE
:10216000AFE723F4FF7323F00103BCE700ED00E0C9
:10217000C187000068880000068100007B8800009D
:1021800029ED00E02AED00E05A8D0000B98800003A
:10219000DD880000024A536943F010035361704721
:1021A00000ED00E0044800232021C2180133302B49
:1021B00082F80013F9D1704700E100E0064A116887
:1021C0000023C1F3072118468B4200D1704793606A
:1021D00010610133F8E700BF90ED00E008B572B67A
:1021E000002383F31388FFF7E9FF144B4FF0FF320E
:1021F000C3F88020C3F88420C3F88820C3F88C205B
:10220000C3F89020C3F89420C3F89820C3F89C200A
:10221000C3F88021C3F88421C3F88821C3F88C2136
:10222000C3F89021C3F89421C3F89821C3F89C21E6
:1022300062B6BFF34F8FBFF36F8F08BD00E100E0C0
:10224000064B9B68834207D1EFF3058323B1044A11
:10225000536843F08053536004F040B8000A0020F4
:1022600000ED00E0024B034A0348012100F068B88A
:102270000000042000000020147E0000426E054B88
:10228000203A1A60044A2021C3E9011218460121AC
:1022900000F07EB89008002000000B15F0B51E4F2E
:1022A00000268E4201DB1046F0BD446884B353B172
:1022B00004F1FF3C14EA0C0F18D11F2C16D9056845
:1022C0001CEA050F12D1202C0568D0F808C0D2B244
:1022D0000FD9B4F1004F0ED8013CB4FA84F4C4F124
:1022E0001F046400072A4CEA040406D96FF01502A3
:1022F000D9E70824F6E73E24F4E725F01F05154347
:1023000045F0100544F00104BA60FD6001323C6103
:1023100001360C30C5E700BF90ED00E0034B05220D
:102320005A60BFF34F8FBFF36F8F704790ED00E09F
:10233000BFF35F8F014B00225A60704790ED00E0C1
:1023400038B50E4D01232A780C46FFF7A7FF2870F9
:10235000163011D140F21113094A0A490A4805F012
:1023600060F82146094805F05CF8BDE838400448AB
:1023700040F2111104F081BF38BD00BF600A002097
:102380000D8900005A8D000006810000448900007C
:1023900010B5124A002312780C46FFF77FFF10F1A8
:1023A000160F08D00E4B0022072800DD10BD9860E4
:1023B0001A610130F8E70B4A0B490C484FF4987347
:1023C00005F02FF821460A4805F02BF8BDE810402B
:1023D00004484FF4987104F050BF00BF600A002019
:1023E00090ED00E00D8900005A8D0000068100008C
:1023F00070890000254910B50C68082C13D94FF4DA
:10240000A473234A2349244805F00BF823480822E3
:10241000214605F006F81E484FF4A47104F02DFF84
:102420004FF0FF3010BDFFF783FF48681C490022C2
:10243000944200F10C0019D11A4B1C70FFF76EFF8B
:102440000B68C3F30723082B0ED01749104A124814
:102450004FF4D47304F0E5FF144804F0E2FF0C4895
:102460004FF4D47104F009FF0020DBE78A6050F8D4
:102470000C3C23F01F03134343F01003CB6050F8D0
:10248000043C43F001030B610132D1E7207E0000E0
:102490000D8900005A8D0000068100009D89000012
:1024A00090ED00E0600A0020D1890000218A000040
:1024B000014B1860704700BF240000204FF020033C
:1024C000EFF3118183F31288BFF36F8F0F4A01235B
:1024D000C2F840354FF08042C2F878350C4A126895
:1024E000082A08D10B4A1268052A04D80A48825CD7
:1024F0000AB10A4A13604FF080430122C3F88025D5
:1025000081F31188BFF36F8F0020704700E0014016
:102510003001001034010010518A000038060040DC
:102520004FF08043C0B2C3F81C05BFF34F8F05497D
:10253000054BCA6802F4E0621343CB60BFF34F8FD0
:1025400000BFFDE700ED00E00400FA0520B1034BF9
:10255000800143F001031847704700BFE07D000091
:102560002DE9F041104C071BC7F347174FF00C083B
:1025700008FB07F8064608F148000D4620444021B4
:1025800004F0D7FF011E09DB084B4444C4E91035B1
:10259000074B53F83730BDE8F041184730462B461B
:1025A000BDE8F041184700BFAC0800209575000059
:1025B000587E000038B5CCB2012C054609D909492E
:1025C00009480A4A792304F02CFF0848792104F0CD
:1025D00054FE2B690C2104FB0134A06C00F00700B1
:1025E00038BD00BF948A000006810000578A0000B1
:1025F000F8B5CCB2012C0769054616460BD9184927
:102600001848194A40F24D1304F00BFF164840F2E7
:102610004D1104F032FE4FF02003EFF3118283F3EB
:102620001288BFF36F8F0C2303FB0471896C11F0C8
:10263000C00101D08E4210D103FB047301219964C3
:10264000002082F31188BFF36F8F28B9696801EB0E
:10265000C404636898470020F8BD4FF0FF30F0E7EE
:10266000948A000006810000578A000070B50D466C
:102670000649411A0446491105484022FFF7B8FFB0
:102680002B4601462046BDE870401847AC080020A4
:10269000887B0000002270B5012104461046FFF738
:1026A00041FB0020FFF720FB0F4801F0BFF80F4B64
:1026B000984215D101F0DEF826690D49304604F044
:1026C0009BFE00280BDB0125B5642469084904F151
:1026D000200004F091FE002801DB6565002070BD3C
:1026E0006FF00400FBE700BF292700000000AD0BDE
:1026F000687E000001460C2309484B4370B5C4189E
:10270000D4E91056002248332264184404F02FFF05
:102710002DB132462B460348BDE87040184770BDC6
:10272000AC080020887B0000012808B506D00328EB
:1027300008D0A8B9104B9B6C5B071BD1BDE80840C3
:10274000FFF7D8BF0D490E4A0E4840F25E2304F051
:1027500068FE40F25E21BDE80840094804F08DBDE6
:102760000649074A074840F2622304F05AFE40F245
:102770006221F0E708BD00BFAC0800205A8D0000C0
:10278000578A00000681000008B54FF02003EFF3E0
:10279000118183F31288BFF36F8F124A136843F0DD
:1027A000020013F0010310600CD04FF08042D2F809
:1027B0000C34D2F80C2413F0010303D00A4804F0BF
:1027C000D6FE012381F31188BFF36F8F23B1BDE8DB
:1027D00008400020FFF78EBFBDE80840012001F04F
:1027E00069B800BF04090020F4080020094BBFF3BA
:1027F0005B8F53E8002F22F0020143E8001000280D
:10280000F7D1BFF35B8FD30702D4012001F0A6B844
:10281000704700BF040900201FB500220123CDE945
:102820000223094ACDF800D06B46CDF804D004F05D
:10283000C3FE002805DB4FF480420023684603F006
:102840003FFE05B05DF804FBB37500002DE9F843C9
:102850004949BFF35B8F0546012251E8003F41E83B
:1028600000200028F9D1BFF35B8FA3B94349444846
:102870004B60CB608A60FEF7ADFF00280BDA414960
:102880004148424A4FF4087304F0CBFD3F484FF4EF
:10289000087104F0F2FCADB36B1E012B56D8012D6C
:1028A00007D14FF08043D3F81C3403F00303012B0E
:1028B00028D005F01FF9044618B9354B1B78002BBA
:1028C00052D14FF02003EFF3118683F31288BFF348
:1028D0006F8F01242F4FDFF8C480DFF8C4904FF0D2
:1028E0008042D2F81834D2F81824D2030CD503F061
:1028F0000303012B01D0012D06D10CB386F31188FF
:10290000BFF36F8FBDE8F883ACB13046FFF784F9B1
:102910004FF08042D2F81835002BE0D139680029F9
:10292000DDD03B603B680123C2F81835C8F8803120
:10293000C9F80030D3E70021212003F091FCE7E73C
:102940004FF080430222C3F80423DBE712490E480C
:102950000E4A40F2322304F064FDBDE8F8430B4810
:1029600040F2322104F089BC4FF080430222C3F8C8
:1029700008230646AEE700BF080900209C08002097
:10298000CC080020B88A000006810000578A0000A9
:10299000710E0020040100405A8D000000E100E0AB
:1029A0000800004008B5084B0848186005F04EF8CC
:1029B00038B10748FFF77CFD0548FFF7F1F8002024
:1029C00008BD6FF01200FBE70C090020E87B000057
:1029D000D52900000A2838B5074D044604D12868D7
:1029E00083680D215B68984728688368E1B25B685B
:1029F0009847204638BD00BF0C09002070B5056916
:102A000016460C4661B92249224A2348242304F081
:102A100008FD224804F005FD1E48242104F02DFC89
:102A2000636863B91E491B4A1B48252304F0F9FC5F
:102A30001C4804F0F6FC1748252104F01EFC6B68C6
:102A40005BB100229C4213D123685AB9AA686B601B
:102A5000944200D1AB600023236076B9002070BDA2
:102A60000B46EFE71360AB689C4208BFAA60F2E731
:102A700019681A460029F3D13EB16B682360A86833
:102A80006C600028EAD1AC60E9E76FF01500E6E77A
:102A9000F48A0000C78A000006810000FD8A000059
:102AA0000C8B00001E8B000043092DE9F04703D07A
:102AB000012B36D0BDE8F0871B4F3B695C68002CCA
:102AC000F8D02568DFF86C80DFF86C90DFF86CA038
:102AD00000F01F000126002D06FA00F638BF002581
:102AE000A3681E4214D0636863B949464523424631
:102AF000504604F096FC0D4804F093FC45214046F6
:102B000004F0BBFBD4E901322146324038469847F5
:102B1000002DCFD02B68002B38BF00232C461D463C
:102B2000DEE7034FC9E700BFA07B00001E8B00005B
:102B3000B87B0000C78A0000358B000006810000CA
:102B40007FB54068057B01F01F04B2F5005F44EAE1
:102B500045144FF0000504D1204601F097FA0020FB
:102B600054E0B2F5804FCDE9025551D1B3F5003FA5
:102B70000CBF042305238DF80830836823FA01F184
:102B800011F0010155D1B2F5A03F52D166094AD0EA
:102B90004FF6FF73012E08BF194604F01F05E940E8
:102BA000CA070BD42B492C482C4A40F2292304F0A5
:102BB00038FC2A4840F2292104F05FFB6EB1012E57
:102BC00034D027492448254A40F22E2304F029FC1A
:102BD000224840F22E2104F050FB4FF0A04305F5AF
:102BE000E07553F82530DB0723D40DF1070529469E
:102BF000204601F075F91B4B984219D1284601F087
:102C0000CFF9194B984213D06FF00B0004B070BD90
:102C1000B3F5C02F05D0B3F5003F0CBF022301234D
:102C2000A9E70323A7E74FF0FF31B6E70F4BD6E73D
:102C300003950023194602AA204601F033F80A4BF7
:102C4000984204D10121204601F0B0F987E76FF0E6
:102C50000400DBE7748B000006810000418B00005C
:102C60005A8D00000400AD0B0000AD0B00030050B6
:102C700010B501F085F9044668B901F059F9084B1F
:102C800098420AD10748214601F024F9224605213D
:102C90000620FFF747F8002010BD6FF00400FBE7A7
:102CA0000000AD0BA92A00002DE9F04347683B7BEB
:102CB00001F01F0585B00E4645EA43151446CAB912
:102CC00002A9284601F00CF90446284601F000FA52
:102CD000484B984204D06FF0040005B0BDE8F08383
:102CE000844205D19DF8080001F054F9A042F2D1C8
:102CF0000020F2E74FF000090DF103013046CDE965
:102D0000029901F0EDF84B46804602AA4946284652
:102D100000F0C8FF374B984202D06FF01500DCE797
:102D2000804503D19DF8030001F034F9A3054ED589
:102D3000314B324A234093423AD00CD8062B14D060
:102D400004D893B1022BE8D104230EE0B3F5801F21
:102D5000E3D1012309E02A4A93422BD0B3F5A00F17
:102D60002AD0B3F5800FD8D102238DF8043084F433
:102D70008073C3F30023E0068DF8053054BFC4F31D
:102D80004013032321058DF8063017D57B680121F8
:102D900001FA06F6C3F80865002201A9284601F0E9
:102DA00029F8144B984214BF6FF01500002094E7E7
:102DB0000723DAE70523D8E70323D6E7620541BFF7
:102DC0007B68012101FA06F6C3F80C65E4E7E30627
:102DD0004FF0000354BFC4F3401403241A4601A962
:102DE00028468DF8044000F05DFF024B98423FF406
:102DF0007FAF92E70000AD0B0600F0000600100068
:102E00000200400002480021C2E900010020704792
:102E10000024F40002464068126938B500F1080346
:102E2000043200F10C04194613F9015B002DB4BF04
:102E300000254FF40045A34222F8025BF4D10023A1
:102E40001A4601F007FB034B984214BF6FF00F00C6
:102E5000002038BD0000AD0B0268530910B50446D0
:102E60002CD0012B4FF6FF7318BF002302F01F0276
:102E7000D340DB070BD414491448154A40F22923E8
:102E800004F0CFFA124840F2292104F0F6F9236841
:102E900003F01F025B0922600DD0012B11D00D49F8
:102EA0000A480B4A40F22E2304F0BBFA084840F2CD
:102EB0002E2104F0E2F94FF0A04010BD4FF0FF3397
:102EC000D4E70548F9E700BF748B000006810000D5
:102ED000418B00005A8D000000030050F0B54B7983
:102EE000012B26D0032B21D110268B79032B1DD14A
:102EF000CC790CB1012C19D10A7912B1022A15D161
:102F00000E220B684568B3F5164F2D6865D02DD895
:102F1000B3F5165F64D016D8B3F5966F62D00AD8B1
:102F2000B3F5967F61D0B3F5167F61D06FF0850061
:102F300052E00026D9E7B3F5166F5CD0B3F5965F83
:102F4000F4D1374B3CE0B3F5E14F57D007D8B3F598
:102F5000615F55D0B3F5964FE8D1324B30E047F67C
:102F60001227BB42E2D14FF4000329E0B3F5613FE1
:102F700048D013D8B3F5963F47D009D84DF6C027AF
:102F8000BB4244D0B3F5614FD0D14FF46B0317E08F
:102F9000B3F5E13FCAD14FF0EB7311E0B3F5612F08
:102FA00038D008D8204FBB4237D0B3F5E12FBDD180
:102FB0004FF0E86304E01D4FBB42B7D14FF08053A0
:102FC000C5F82435036903C9344322430433C5F8E3
:102FD0006C2583E803000020F0BD4FF41D03EFE7EC
:102FE000134BEDE74FF49E23EAE74FF4A033E7E7F6
:102FF0004FF41C33E4E74FF41D23E1E70D4BDFE70B
:103000000D4BDDE74FF06C73DAE70C4BD8E74FF46C
:103010006503D5E74FF07063D2E74FF08063CFE7E9
:1030200000B0130000A04E0090D0030040420F00FB
:103030000050270000C0750000F03A0000903A01EF
:103040000268530910B504462CD0012B4FF6FF73CC
:1030500018BF002302F01F02D340DB070BD4144932
:103060001448154A40F2292304F0DBF9124840F2D3
:10307000292104F002F9236803F01F025B09226092
:103080000DD0012B11D00D490A480B4A40F22E23D6
:1030900004F0C7F9084840F22E2104F0EEF84FF092
:1030A000A04010BD4FF0FF33D4E70548F9E700BF5B
:1030B000748B000006810000418B00005A8D0000D7
:1030C00000030050F8B5066905460F4604F012FDEE
:1030D00010B92C4B1B7883B94FF02003EFF3118408
:1030E00083F31288BFF36F8F284604F0BDFB28BB23
:1030F00084F31188BFF36F8FEEE76424284604F051
:10310000B3FB70B9012004F005FC013CF6D10021AD
:10311000212003F0A5F8F0E784F31188BFF36F8F47
:10312000F5E74FF02003EFF3118483F31288BFF328
:103130006F8F284604F098FB0028EDD006F8107F2A
:1031400069680B680122C3F84465C3F8482500226A
:10315000C3F82021D3F82001C3F85821D3F858210F
:103160004A68D20641BF0822C3F800254FF4800206
:10317000C3F8042301229A6084F31188BFF36F8F90
:10318000F8BD00BF710E00202DE9F743D0F8048090
:103190000769D8F800400023C4F800353860456856
:1031A000EB680646581C13D001A80193FFF748FFAF
:1031B000019A01239340C0F80835EB68019301A8F8
:1031C000FFF73EFF019B03F5E073032240F8232045
:1031D0002B69591C11D02A7F0193002A01A814BF22
:1031E0004FF003094FF00009FFF72AFF019B03F599
:1031F000E0734FEA890240F823206B695A1C13D010
:1032000001A80193FFF71CFF019A01239340C0F826
:1032100008356B69019301A8FFF712FF019B03F5C5
:10322000E073032240F82320AB69581C11D06A7F59
:103230000193002A01A814BF4FF003094FF00009C1
:10324000FFF7FEFE019B03F5E0734FEA890240F8A9
:103250002320D5E903122B68C3F80C15C3F81425F5
:10326000D5E90512C3F808153169C3F810250431F2
:103270003046FFF733FE0546002846D1D8F8043023
:10328000990719D507F1120001F020F8224B984256
:103290003FD1B87CC30003F1804303F5F83304F158
:1032A0000C0204F59071C3F81015C3F814251B4ADD
:1032B00001238340C2F804350823C4F8003598F888
:1032C00008305BB9C4F81031D4F8103107F111039C
:1032D000C4F834350123C4F838352360D8F80430F5
:1032E0009A075CBF4FF48072C4F80423DB0644BF26
:1032F0004FF48003C4F8043310370023C4F8447536
:10330000C4F848350123A360E360284603B0BDE854
:10331000F0836FF00405F8E70000AD0B00F001400A
:10332000194970B5044622F07F460868C1E90023B8
:10333000A6F50013101AB3F5400F4FF000050AD29E
:10334000124B19680A060B0A9219114943F100033E
:10335000C1E90023012503F061FCA30003F18043D0
:1033600003F58833D3F84025B2420BD11DB94FF491
:103370000002C3F84025074B4FF4803000FA04F4F4
:10338000C3F8444370BD00BFC001002040090020C5
:10339000A80100200010014010B501238340114A0C
:1033A000BFF35B8FDC4352E8001F01EA040C42E8E4
:1033B00000CEBEF1000FF6D1BFF35B8F4FF4803229
:1033C00002FA00F002F1804202F58052C2F80803CE
:1033D000BFF35F8FBFF36F8F0B4214BF012000203C
:1033E00010BD00BF3C0900200123124ABFF35B8FD0
:1033F000834052E8001F194342E8001CBCF1000F53
:10340000F7D1BFF35B8F0C4A4FF480338340C2F88F
:1034100004330A4BBFF35B8F1B68BFF35B8F23FA48
:1034200000F0C30742BF064B4FF40032C3F800213F
:10343000704700BF3C0900200010014038090020FF
:1034400000E100E00D4B1B68190A1806BFF35F8FFF
:103450000B4BD3F80435C01841F10001B3F5801FC0
:103460000AD2084BD3E90023994208BF904203D205
:1034700010F1807041F10001704700BF4009002049
:1034800000100140A80100202DE9F04F85B016463C
:103490001F460546FFF780FF0190FFF7D3FFB942B3
:1034A00008BFB0427FD2B6EB000867EB01090023EA
:1034B0004FF080724B4508BF4245C0F08580444BB9
:1034C00003EB0513D3E902239F4208BF964254D071
:1034D0004FEA85094FF4803B09F1804905F1500816
:1034E0000BFA05F209F588394FEA88081FFA88F8BF
:1034F0000292384AD9F8400526F07F4308F1804807
:1035000008F588381C469346D2F804A5A0EB0A00BB
:1035100020F07F402AF07F410128C9F8401505D1ED
:103520000393132004F0F0FA2A4A039B02990AF14C
:10353000020CA4EB0C0020F07F40B0F5000F88BF18
:1035400064460020C8F80000D8F80000CBF8441307
:1035500024F07F40C9F84005DBF80405824506D019
:10356000201A023820F07F40B0F5000F19D8E41A75
:1035700024F07F44321947F10003154C290104EB74
:103580000510C0E902230E9A0F9B6250436000248D
:10359000019B13B12846FFF727FF204605B0BDE881
:1035A000F08F2046B0E701230B4ABFF35B8FAB409F
:1035B00052E8001F194342E800100028F8D1BFF379
:1035C0005B8F32463B46D8E76FF01504E0E700BF5B
:1035D000B0010020001001403809002073B5194BDC
:1035E000194D00244FF0FF304FF0FF31C5F808456A
:1035F000C3E902014FF48033C5F80433134B0226AC
:103600004FF400320121C5F804631120C3F8802172
:103610002246FEF787FB1120FEF766FB0C4A0123CA
:1036200013600C4A2B6013600B4B0C4A00930194FF
:1036300000232046FFF728FF3046FFF707F9204612
:1036400002B070BDB00100200010014000E100E0B8
:10365000081001403C09002021330000FFFF7F00DB
:103660002DE9F743344CD4F804339A0709D5334B8A
:103670001A6832B100221A60314A1B68136801339C
:1036800013604FF02003EFF3118283F31288BFF32E
:103690006F8FD4F80433DB0312D5BFF35B8F294B54
:1036A00053E8001F21F0010043E80006002EF7D187
:1036B000BFF35B8F244B002936D11968002933D121
:1036C000002382F31188BFF36F8F53B3FFF7BAFE65
:1036D00006464FF02003EFF3118083F31288BFF307
:1036E0006F8F1A4BD3E90289494508BF46454FF011
:1036F00000021ED34FF0FF364FF0FF37D3E900151D
:10370000C3E902671A604FF48033C4F8483380F38A
:103710001188BFF36F8F21B1009542464B460020C0
:10372000884703B0BDE8F083002119601B680123BE
:10373000C7E71146EBE700BF00100140041101404C
:10374000400900203809002040110140B00100204C
:10375000144B13B5B0F1FF3F08BF1846441E002CB0
:103760001EDD9C42A8BF1C46FFF76CFE0E4B0F49A6
:10377000D3E90023801AB0F5000F28BF00240130E0
:10378000044408480091844228BF044612194FF0AF
:103790000000019043F10003FFF776FE02B010BD78
:1037A0000024E1E7FFFF7F00C0010020213300007B
:1037B00008B5FFF747FE024B1B68C01A08BD00BFE3
:1037C000C001002008B578B101281CD0144A154961
:1037D00015484FF44F7303F024FE11484FF44F7116
:1037E00003F04BFD00200DE031B14FF08043D3F8E2
:1037F000183403F003030B604FF08043D3F8180430
:10380000C0F3004008BD31B14FF08043D3F80C3411
:1038100003F001030B704FF08043D3F80C04EFE783
:10382000B28B00005A8D00000681000010B50446DE
:1038300048B90A490A480B4ABD2303F0F2FD09487A
:10384000BD2103F01AFD084B1A7922B9012207485D
:103850001C609A8010BD0648FCE700BF238C000066
:1038600006810000E68B0000440900200000AD0B3B
:103870000C00AD0B08B50B4B1B794BB90A490B4833
:103880000B4AD62303F0CDFD0948D62103F0F5FC01
:103890000020FEF739FA18B9BDE80840FEF724BA4F
:1038A00008BD00BF44090020318C000006810000E3
:1038B000E68B0000224B1B7913B504465BB9214906
:1038C0002148224A4FF4897303F0ABFD1F484FF49F
:1038D000897103F0D2FC74B1012C27D01B4A1C491A
:1038E00019484FF4A27303F09CFD18484FF4A271DD
:1038F00003F0C3FC16E001A92046FFF763FF4FF079
:10390000804388B1019A012A0ED1C3F81825114BC2
:1039100000221A601B684FF080430222C3F8042380
:1039200001229A6002B010BD0022EEE70A4B00228D
:103930001A601B684FF08043C3F804431C60F1E732
:1039400044090020318C000006810000E68B000055
:103950005A8D0000040100400001004037B52F4D92
:103960002A7904465AB92E492E482F4A40F24B1361
:1039700003F057FD2C4840F24B1103F07EFC7CB164
:10398000012C28D029492748274A40F2671303F021
:1039900048FD254840F2671103F06FFC03B030BDCD
:1039A0004FF080430222C3F80823C3F8044103F513
:1039B000827301221B681E4B42F210741A600021B0
:1039C0000846FFF7FFFE0028E8D0012003F0A2FF21
:1039D000013CF4D1E2E74FF080430022C3F80843F2
:1039E000C3F8002103F580731B68124B1C608DF82F
:1039F000074042F210740DF107010120FFF7E2FECB
:103A000010B900236B71C9E79DF807000128F8D1B0
:103A100003F080FF013CEED1F3E700BF4409002032
:103A2000318C000006810000E68B00005A8D0000FA
:103A30000C00004004000040164B07B51A686AB13C
:103A400000221A601B684FF080430122C3F808234C
:103A5000114B587910B95A711B6898470F4B1A6867
:103A60006AB10020186001A91B68FFF7ABFE019A3C
:103A70004FF0804332B90122C3F818259A6003B091
:103A80005DF804FB0222C3F80823034B01201B68E6
:103A90009847F4E700010040440900200401004079
:103AA00070B501250368B3FA83F2202AC2F11F041E
:103AB00014D0BFF35B8F05FA04F223EA020250E848
:103AC000006F9E4204D140E8002CBCF1000FF6D1FB
:103AD000BFF35B8FE6D102480C7070BD0148FCE774
:103AE0000000AD0B0200AD0B0368CB40DB0710B547
:103AF00015D4012303FA01F10368BFF35B8F41EA98
:103B0000030250E8004F9C4204D140E8002CBCF175
:103B1000000FF6D1BFF35B8FEED1024810BD024813
:103B2000FCE700BF0000AD0B0400AD0B054B0830F7
:103B300033F8100000F02200A0F12203584258414F
:103B4000704700BF5000002070B500F108030C4C16
:103B500034F81330DA0505460E4607D5C3F3432380
:103B600004EBC30254F8333052689847A3682BB172
:103B7000E26831462846BDE87040184770BD00BF76
:103B800050000020194B083010B533F81020D10533
:103B90001DD5C2F3432122F4F85223F8102003F17B
:103BA0001004002034F8022B12F4807F03D0C2F3FB
:103BB000432291420BD001303028F3D1002243F848
:103BC00031200B48FFF790FF0A4B984200D110BDFF
:103BD00009490A480A4A4FF4997303F022FCBDE8E8
:103BE000104007484FF4997103F047BB5000002084
:103BF000C40000200000AD0BB38C00000681000063
:103C00004F8C000038B50A4C00F1080534F8153027
:103C10009A0606D55B0B074A03F5A273002142F80A
:103C20002310FFF7AFFF002324F8153038BD00BF85
:103C3000500000200060004010B50446006803F00A
:103C40006BFE58B912491348134A40F2292303F076
:103C5000E8FB114840F2292103F00FFB236803F031
:103C60001F025B0922600DD0012B0ED00B490948C1
:103C7000094A40F22E2303F0D4FB074840F22E21DC
:103C800003F0FBFA4FF0A04010BD0548FCE700BF71
:103C9000748B000006810000418B00005A8D0000EB
:103CA00000030050F0B5044685B017461D46F1B13B
:103CB000FFF73CFF10B14A4805B0F0BD0B46CDE917
:103CC00000008DF80E008DF80F000DF10F020DF1C0
:103CD0000E01204603F035FE424A04F1080132F895
:103CE000113023F0020343F0010322F8113097B1A1
:103CF0003C4B3E787A6804F1080033F810108F07C7
:103D00000CD5002AD7D133F8102022F01C0242EA49
:103D1000860223F81020CDBB3348CDE721F02001E7
:103D2000C904C90C23F81010002AECD0032EC2D805
:103D300017782EB92D4A07F5A27142F82160E2E703
:103D4000BA0002F1804202F5C04241EA4731D2F89E
:103D500010C52CF0030CC2F810C5D2F810C52CF415
:103D60004F3C2CF4407CC2F810C5D2F810E54FEA65
:103D7000042C0CF47C5C4EEA064E4CEA0E0C41F02E
:103D8000200123F81010C2F810C5BCE7D5E9006780
:103D90002046FFF7F7FE002EBED0124D2B689E4244
:103DA00004D16B689F4201D100220AE010480DF156
:103DB0000F01FFF775FE0C4B98427FF47DAF9DF825
:103DC0000F2045F8326005EBC20308345F6035F818
:103DD000143043EA422343F4807325F814309BE700
:103DE0000400AD0B500000200000AD0B006000404F
:103DF000C4000020F0B5044685B0154609B300F1B3
:103E00000807314E36F81730980701D49A0658D46F
:103E100013F01C0F02D04B78012B52D001238DF8E8
:103E20000F300023CDE900134A1C8B1C20460DF1F6
:103E30000F0103F086FD36F8173043F0030326F830
:103E4000173015B9214805B0F0BD1F4E04F1080721
:103E500036F81700830734D595F800C0614689000D
:103E600020F0200001F18041C00401F5C041C00CE8
:103E700026F817000023C1F810356A78002AE1D02F
:103E8000D1F81035AD7823F4991323F4F853C1F821
:103E90001035D1F810E5230203F47C53120443EAF1
:103EA0000E0302F440322D05134305F4801540EA59
:103EB0004C302B4340F0200026F81700C1F8103595
:103EC000C0E70348BFE700BF500000200000AD0B73
:103ED0000400AD0B014BC3E9020170475000002004
:103EE00038B504460D4659B90B490C480C4A40F206
:103EF000352303F096FA0A4840F2352103F0BDF964
:103F00000834084B33F814309A0643BF5B0B2B7010
:103F10000548064838BD00BFC78C00000681000078
:103F20004F8C0000500000200000AD0B0400AD0BD2
:103F300038B50E4C94F87850B5B96022294604F192
:103F4000100003F0CFFA0620FDF7CEFE084B09481B
:103F50001D601B68084B4FF00042C3F80423012387
:103F600084F87830636738BD0448FCE750000020CF
:103F70007C6100400000AD0B006000400500AD0B0F
:103F8000034B93F87800003818BF0120704700BF3A
:103F90005000002001460148FFF7A6BDC0000020E8
:103FA00001460148FFF77CBDC0000020F7B5314D48
:103FB00000F10807044635F8173013F01C0F0E46C1
:103FC0000BD12D492D482E4A40F2DF3303F029FA58
:103FD0002B4840F2DF3103F050F935F81700830623
:103FE0001FD510F002031CD1410B084603F0A5FCBD
:103FF00000F1804000F5C040036003688B0003F1CE
:10400000804303F5C043D3F8102542F00102C3F802
:10401000102526B11B4A01238B40C2F8043303B09C
:10402000F0BD5EB918491548154A40F2EE3303F069
:10403000F8F9134840F2EE3103F01FF935F8173064
:10404000C3F38203042B10D0052B10D001A80194D8
:10405000FFF7F2FD019BD0F81015D94001F00101E6
:104060000231204603F0B8FCD9E70321F9E7022129
:10407000F7E700BF50000020D18C0000068100004F
:104080004F8C000000600040E68C00000E4B00F1F9
:10409000080233F81230990613D59A0711D45B0B36
:1040A00001229A409B00094903F1804303F5C04374
:1040B000C1F80823D3F8102522F00302C3F8102515
:1040C0007047002103F088BC5000002000600040D1
:1040D0000E4B00F1080213B513F81230DB0704464B
:1040E00011D5FFF7D3FF2046FFF78CFD01A80194FF
:1040F000FFF7A2FD019B03F5E073022240F82320A5
:10410000034802B010BD0348FBE700BF5000002089
:104110000000AD0B0400AD0B2DE9F04F654B664878
:104120006649002589B001222C461E6836B1D0F8B8
:10413000046316421EBF1C601E68154304338B4285
:104140004FEA4202F1D15E4F3B687BB34FF0A04390
:104150005C4ED3F820250692C3F82025D6F82035EA
:104160000793C6F8203501960DF118094FF00008A5
:104170004FF0010BD9F80030F3B908F12008B8F17D
:10418000400F09F10409F5D13B603B6801994FF0FC
:10419000A043D3F820250692C3F82025019BD3F82D
:1041A00020350793C1F820351343DDD10124002DBC
:1041B00068D109B0BDE8F08F93FAA3F3B3FA83F3A3
:1041C00008EB030606F108023F4B059633F8122070
:1041D000C2F38203F40802939A4606AB06F0070086
:1041E0000BFA00FC185D20EA0C001855910805A890
:1041F0000391FFF721FD059C039904F5E0744B073B
:1042000050F82440C4F3014423D551463046FFF70B
:104210009BFC05A80596FFF70FFD059A02F5E072D5
:10422000E4B250F82220C2F30142944207D10021A7
:10423000304603F0D1FB2146304603F0CDFB05A804
:104240000596FFF7F9FC059B0BFA03F3C0F8203540
:1042500090E7022C0CBF03210221304603F0BCFB87
:10426000029B032B04D0022C07D1BAF1010FE6D137
:1042700051463046FFF768FCE1E7032CDFD1BAF185
:10428000020FF4E795FAA5F3B3FA83F304FA03F205
:104290009B0003F1804303F5C04325EA0205D3F8F0
:1042A0001005D3F81015C0F30520C1F30141FFF745
:1042B0004BFC7CE700610040006000402061004052
:1042C0007C6100400003005050000020014601487E
:1042D000FFF7E6BBCC0000202DE9F04104460E4676
:1042E00015465AB932493348334A40F2A72303F0FE
:1042F00098F8314840F2A72102F0BFFF2F685FB95C
:104300002E492C482C4A4FF42D7303F08AF82A4882
:104310004FF42D7102F0B1FF04EB4618C8F8207578
:10432000AF88002F38D12649234A224840F2BD23C6
:1043300003F077F840F2BD211F4802F09EFFC8F855
:104340002475AF68B7F1807F0BD31E4919481A4A0C
:1043500040F2C72303F065F8174840F2C72102F086
:104360008CFFED684FEA461804EB4616B5F1807FE6
:10437000C6F828750BD314490E480F4A4FF434730E
:1043800003F04FF80C484FF4347102F076FF4444C8
:10439000C4F82C55BDE8F0813B04D0D50B49064A42
:1043A000044840F2BE2303F03CF840F2BE21C3E7CC
:1043B000238D000006810000F18C0000388D000084
:1043C000508D00007A8D00009B8D00005C8D0000F8
:1043D0000268530910B504462CD0012B4FF6FF7329
:1043E00018BF002302F01F02D340DB070BD414498F
:1043F0001448154A40F2292303F013F8124840F2FA
:10440000292102F03AFF236803F01F025B092260B2
:104410000DD0012B11D00D490A480B4A40F22E2332
:1044200002F0FFFF084840F22E2102F026FF4FF075
:10443000A04010BD4FF0FF33D4E70548F9E700BFB7
:10444000748B000006810000418B00005A8D000033
:10445000000300502DE9F04F064687B0914698467C
:104460000C4649B959495A485A4A8C2302F0D9FF97
:1044700058488C2102F001FF3779574D0C217943C0
:104480006B181A7A002A40F09F80227B45F8019031
:10449000C3F804809A72002A4DD0637B002B4AD067
:1044A000D6F80080B4F808900123C8F80035B4F9B4
:1044B000083094F805B094F806A0002B0BDA4749B1
:1044C0004348474A4FF4277302F0ABFF44484FF488
:1044D000277102F0D2FEC8F80CB53068C8F804A500
:1044E000C8F808956389C0F810350023C0F8003279
:1044F000C0F80033C0F81C31D0F81C21C0F81031CE
:10450000D0F81021C0F81431D0F81421C0F80431CB
:10451000D0F804310C237B43EB581BB140F3073038
:10452000FDF7E2FB0C2303FB07552E4801232B72FA
:1045300007B0BDE8F08F04F1FF390DF1080804F170
:10454000030A19F8012FFF2A39D0217B22F0800BB2
:10455000C8F800B0B1B91306CDF804B001A826D44C
:10456000FFF736FF019901228A40C0F80C2501A807
:10457000CDF804B0FFF72CFF019B03F5E073032295
:1045800040F82320D14508F10408DAD1637B002BE1
:1045900086D13368029AC3F86025039AC3F864256C
:1045A000049AC3F86825059AC3F86C2578E7FFF7E5
:1045B0000FFF019901228A40C0F80825D7E74FF084
:1045C000FF33C8F80030DDE70748B1E7F98D000098
:1045D00006810000BE8D00004C090020028E000004
:1045E000F18C00000000AD0B0500AD0B2DE9F04192
:1045F000984603791446314A0E4603EB430102EB19
:1046000081070C2101FB032305461B7A5BB92C496A
:104610002C482D4A4FF4967302F003FF2A484FF4BA
:10462000967102F02AFE5CB928492648264A40F2D3
:104630002D1302F0F6FE244840F22D1102F01DFE6B
:10464000336803F06043B3F1005F0BD020491D488D
:104650001D4A4FF4977302F0E4FE1B484FF4977124
:1046600002F00BFE286832460021FFF735FE28686D
:1046700032460121FFF730FE286804F0010303EB06
:10468000540418F0010FC0F8144514D118F00202B8
:1046900003D0002B14BF08220422002BC0F80022F4
:1046A00039465FFA88F218BF0C23BDE8F04108BF15
:1046B000082303F0A0B91022EFE700BF4C09002047
:1046C000238E000006810000BE8D00004F8E00008A
:1046D000628E000070B5124E04790C2202FB046257
:1046E0000546127A5AB90F490F48104A4FF4D5734C
:1046F00002F097FE0D484FF4D57102F0BEFD0C2379
:104700002A6803FB0464237AD2F80421DBB21AB9C5
:10471000981E18BF012070BD01202072FBE700BF6A
:104720004C090020238E000006810000BE8D000091
:1047300038B5144A03790D460C2101FB03230446C6
:104740001B7A5BB910491148114A40F2851302F0F7
:1047500068FE0F4840F2851102F08FFD23680022A9
:10476000C3F8002201225A602046FFF7B3FF38B990
:104770002046FFF7AFFF18B9002DF9D1284638BD04
:104780000125FBE74C0900208B8E0000068100000C
:10479000BE8D0000034B1868A0F108035842584131
:1047A000704700BF30010010064B1B68082B06D174
:1047B000054B1B68052B02D8044AD05C70470020CB
:1047C000704700BF3001001034010010D68E000089
:1047D000024AD2F80034002BFBD0704700E00140C1
:1047E00010B5FFF7D7FF40B14FF080430022C3F868
:1047F0000C21C3F81021C3F83825FFF7CBFF0028A0
:1048000046D04FF080525B4BD2F80414C3F8201509
:10481000D2F80814C3F82415D2F80C14C3F82815DC
:10482000D2F81014C3F82C15D2F81414C3F83015AC
:10483000D2F81814C3F83415D2F81C14C3F8401574
:10484000D2F82014C3F84415D2F82414C3F848153C
:10485000D2F82814C3F84C15D2F82C14C3F850150C
:10486000D2F83014C3F85415D2F83414C3F86015D4
:10487000D2F83814C3F86415D2F83C14C3F868159C
:10488000D2F84014C3F86C15D2F84424C3F870254C
:10489000FFF78AFF10B1384B384A1A60FFF784FFE0
:1048A00018B1374BFB22C3F81825FFF77DFF48B13D
:1048B0003449354B0A681B6822F00F0203F00F03DE
:1048C00013430B60FFF770FF18B1304B4FF40072C9
:1048D0001A60FFF75FFF48B14FF08043D3F8002420
:1048E000D20744BF6FF00102C3F80024284B1B68B5
:1048F000082B0ED1274B1B68052B02D8264AD35C08
:104900003BB14FF01023D3F808224FF08043C3F897
:1049100058254FF01023D3F80022002A03DBD3F8E8
:104920000432002B22DA1D490123C1F80435FFF7B8
:104930004FFF4FF010201224C0F80042FFF748FF4D
:10494000C0F80442FFF744FF0023C1F80435FFF725
:104950003FFFBFF34F8F1249124BCA6802F4E06267
:104960001343CB60BFF34F8F00BFFDE70E4B0F4AE1
:104970001A6010BD00C000408C5600404881030002
:1049800000F00040E40E0040580200104096024043
:104990003001001034010010D08E000000E0014012
:1049A00000ED00E00400FA05D00000200090D003E4
:1049B00010B5144C144A1549032323616361144B49
:1049C000A261E3614FF4806323620023A362636208
:1049D000E36222660F4A6266E01D1022A266236728
:1049E000E366636702F04DFDBFF35F8F0A4920461F
:1049F00002F047FDBFF35F8F2023A371BFF35F8FEA
:104A000010BD00BF58090020DC8E0000E58E0000BC
:104A1000710A0020610A0020E98E00000E4B70B57B
:104A200053F82040013053F82060A64200D870BDF2
:104A3000D4E900352846984765B1EB6830B10028C5
:104A4000B8BF4042FF28A8BFFF2018705A7842F034
:104A500001025A700834E8E73C7F000070B5054653
:104A600010B90024204670BD0378002BF9D00F4AFE
:104A70000F4C1646944208D10D4CB442F1D020465A
:104A800002F0E4FF50B91834F7E7204602F0DEFFE9
:104A900010B12368AB42E5D01834EBE72168284613
:104AA00002F009FD0028EED1DCE700BF187C000011
:104AB000887B0000F8B504460E464FF02003EFF364
:104AC000118783F31288BFF36F8F01F001FC314629
:104AD0000546204602F00EFF042C0CD10A490B4A71
:104AE0000B488F2302F09DFC0A4802F09AFC07480D
:104AF0008F2102F0C2FB87F31188BFF36F8F284626
:104B0000BDE8F840FDF79CBB128F0000F08E00005E
:104B1000068100002F8F0000114CA26892F90E2030
:104B2000002A08B509DA0F490F48104A272302F076
:104B300078FC0E48272102F0A0FB4FF02002EFF393
:104B4000118382F31288BFF36F8F01F0CFFFA06152
:104B5000FCF79EFF0028F0D1FDF750F8EDE700BF0D
:104B6000000A0020858F000006810000648F00008D
:104B700030B5002387B00122CDE904230F22CDE90F
:104B800002320D4C0D4A01930D49182304EBC01459
:104B900003FB00234FF4B075009305FB0011094B94
:104BA0004FF4A072204601F015FD637B23F004034F
:104BB000637307B030BD00BFC8010020000A0020A9
:104BC00060140020194B000008B50A4B0122022096
:104BD0001A70FFF723FF02F057F90320FFF71EFFBB
:104BE00001F05CFD02F044FB034A137B23F0010358
:104BF000137308BD710E0020480200200248034ACA
:104C00000021121A02F06EBCA80100203010002012
:104C100080B5DFF8D880A6B088F308882D4D2E4ED9
:104C20006B69DFF8CC9043F4007300246B61E023E0
:104C300085F82230EC772C766C76AC7685F82040BF
:104C40006B6A43F4E0236B6285F82340FDF7A2FA18
:104C5000FCF7CEFF4FF0FF33AB62EB62FDF7CAFB10
:104C6000FDF700FB40F20113ADF8243006ABB36052
:104C7000CDE91F4402F0E9FE2046FFF7CFFE0120F8
:104C8000164DFFF7CBFE01F08DF9154B059301236F
:104C900014490094CDE903434FF480624B46CDE9BB
:104CA00001442846F56101F095FC6A7B22F004027C
:104CB0006A730746284600F0C1FD2046FFF758FFFB
:104CC000094BF3604A46394628463475C6F80480D5
:104CD000FDF7C8F800ED00E0000A002048020020BF
:104CE000AD8F000040100020C8010020E01D002012
:104CF000C94B00002DE9F041164D174C174EA84640
:104D0000AC420CD9164917483C23324602F089FBC5
:104D1000154802F086FB3C21304602F0AEFA4445CD
:104D200002D30020BDE8F081D4E9042141EA020366
:104D300013F003030BD1E068A361834201D1203457
:104D4000DEE7A7690F600133A1611144F5E76FF059
:104D50001500E7E75401002054010020B28F000045
:104D6000D78F000006810000F48F00002DE9F74383
:104D700004460E469046994600F108054FF0200380
:104D8000EFF3118783F31288BFF36F8F284601F08A
:104D900015FD68B9244A25492548812302F041FBC5
:104DA0002448294602F03DFB1F48812102F065FAA4
:104DB000284601F021FDA369EBB133601B68A361B4
:104DC000E3690133E3610024284601F005FD68B979
:104DD000154A19491648AC2302F023FB1748294607
:104DE00002F01FFB1048AC2102F047FA87F311884C
:104DF000BFF36F8F13E058EA090203D133606FF0FD
:104E00000B04E1E72246CDE900893946284600F047
:104E1000C7FE044618B90A4B9B685B69336020469D
:104E200003B0BDE8F08300BF88860000DA8600008A
:104E300006810000EF860000AE860000C5860000F7
:104E4000000A00202DE9F04104460E4600F1080555
:104E50004FF02003EFF3118783F31288BFF36F8FB6
:104E6000284601F0ABFC68B9224A23492348812334
:104E700002F0D7FA2248294602F0D3FA1D488121D0
:104E800002F0FBF9284601F0B7FCD4F81880B8F11D
:104E9000000F0FD1204601F035F858B13268426159
:104EA000C0F8788000F0CAFC39462846BDE8F041D9
:104EB00000F070BA3368A2691A603368A361E369CD
:104EC000013BE361284601F087FC68B9094A0D49B6
:104ED0000A48AC2302F0A5FA0B48294602F0A1FAD1
:104EE0000448AC2102F0C9F987F31188BFF36F8F32
:104EF000BDE8F08188860000DA86000006810000A7
:104F0000EF860000AE860000C58600002DE9F34163
:104F1000044616461F46EFF3058363B17049714A94
:104F20007148652302F07DFA704802F07AFA6D4804
:104F3000652102F0A2F94FF02003EFF3118883F30B
:104F40001288BFF36F8F6A4801F038FC68B9694A6C
:104F500069496548812302F064FA6549674802F0AF
:104F600060FA6448812102F088F9614801F044FC4C
:104F7000E368634AFBB1A068916888423DD056EA75
:104F800007033CD15A4801F027FC68B9594A5D49EA
:104F90005548AC2302F045FA55495B4802F041FA06
:104FA0005448AC2102F069F988F31188BFF36F8F80
:104FB0006FF00F001EE0916891F90E104C482161CE
:104FC0000133E3609368A36001F006FC68B9494AC5
:104FD0004C494548AC2302F024FA45494A4802F0BE
:104FE00020FA4448AC2102F048F988F31188BFF355
:104FF0006F8F002002B0BDE8F0812169DEE791F9F2
:105000000E1090F90E309942A8BF19466FF07E023B
:105010009142B8BF11468B4244DD00F0F1FD0546D8
:10502000CDE9006732482246414600F0B9FD00282C
:10503000E0D04FF02003EFF3118683F31288BFF323
:105040006F8F2B4801F0BAFB68B92A4A2A492648D3
:10505000812302F0E6F92649284802F0E2F92548C2
:10506000812102F00AF9224801F0C6FB2368216978
:105070009C420AD04BB193F90E309942A8BF194611
:105080006FF07E039942B8BF1946A06890F90E30C0
:10509000994209D16DB11648314600F07BF96FF0A5
:1050A0000A00A7E70025BBE700F0AAFD0028F2D11F
:1050B000F0E70F4801F090FB68B90E4A11490A4821
:1050C000AC2302F0AEF90A490F4802F0AAF90948E8
:1050D000AC2102F0D2F886F31188BFF36F8FDEE7C0
:1050E00035900000139000000681000047900000FA
:1050F000280A002088860000DA860000EF8600007B
:10510000000A0020AE860000C586000038B50446BF
:10511000EFF3058363B15249524A5348C72302F063
:1051200080F9524802F07DF94E48C72102F0A5F8F7
:10513000A368002B00F08D804D4DAA68934240F08B
:105140008B80E3684BB94B494748464ADF2302F05E
:1051500068F94448DF2102F090F8EFF3058363B16A
:105160003F49454A4048FD2302F05BF9434802F0BD
:1051700058F94148FD2102F080F8AB68DB7B012B38
:105180000CD13F493C4A3848FE2302F04AF93B48DB
:1051900002F047F93848FE2102F06FF8AA68D37B85
:1051A000013BD373E368012B05D9013BE36000F0B9
:1051B0002DFE002038BD4FF02003EFF3118583F35F
:1051C0001288BFF36F8F2F4801F0F8FA68B92E4AA2
:1051D0002E492548812302F024F92A492C4802F05F
:1051E00020F92948812102F048F8264801F004FB03
:1051F000A068216990F90E30994201D000F000FDBD
:10520000204600F07FFEA06058B190F90E20226188
:105210000022826700F012FB1A48294600F0BAF813
:10522000C5E7E060174801F0D7FA68B9164A19498E
:105230000D48AC2302F0F5F81249174802F0F1F8D6
:105240001148AC2102F019F885F31188BFF36F8F74
:10525000ADE76FF01500ADE74FF0FF30AAE700BFF4
:105260003590000013900000068100004790000078
:10527000000A00206C90000083900000AE900000B7
:10528000B1900000280A002088860000DA8600001D
:10529000EF860000AE860000C586000010B5084C01
:1052A00023685BB1FEF784FA03462068054A03448D
:1052B000BDE810401361002101F060BC10BD00BFCB
:1052C000380A0020000A0020F8B504460D464FF0C9
:1052D0002003EFF3118683F31288BFF36F8F234807
:1052E00001F06CFA68B9224A22492348812302F06E
:1052F00098F81E49214802F094F81D48812101F0D8
:10530000BCFF1A4801F078FA1D4B00224FF4004709
:1053100040F2E73000211A61E7FB040100234FF45B
:105320007A72FAF7EDFE002C164B1BDC1860164B58
:105330001D60FFF7B3FF0D4801F04EFA68B90C4A43
:1053400012490D48AC2302F06CF80849104802F0ED
:1053500068F80748AC2101F090FF86F31188BFF38D
:105360006F8FF8BD0228B8BF0220DFE7300A0020A7
:1053700088860000DA86000006810000EF860000C3
:10538000000A0020380A0020340A0020AE860000FF
:10539000C586000038B504460D46E9B9EFF305832C
:1053A000D3B9194BDA699B689A4215D001F014FA07
:1053B00068B9164A16491748C32302F032F816484E
:1053C000214602F02EF81148C32101F056FFBDE836
:1053D00038400020FCF7F6BC204601F0FDF968B922
:1053E0000A4A0B490B48AC2302F01BF80A48214635
:1053F00002F017F80548AC2101F03FFF85F3118852
:10540000BFF36F8F38BD00BF000A00208886000000
:10541000AE86000006810000C586000038B54FF05A
:105420002003EFF3118583F31288BFF36F8F2948B0
:1054300001F0C4F968B9284A28492948812301F0B4
:10544000F0FF2449274801F0ECFF2348812101F0B7
:1054500014FF204801F0D0F9EFF3058363B122492E
:10546000224A1F48FD2301F0DCFF214801F0D9FF4B
:105470001E48FD2101F001FF1E4CA268D27B012ACB
:105480000CD11D49194A1648FE2301F0CAFF1848DD
:1054900001F0C7FF1548FE2101F0EFFEA268D37BA3
:1054A000013BD3730B4801F097F968B90A4A1349D5
:1054B0000B48AC2301F0B5FF0649114801F0B1FFDC
:1054C0000548AC2101F0D9FE85F31188BFF36F8F39
:1054D00038BD00BF300A002088860000DA86000050
:1054E00006810000EF8600003590000083900000E8
:1054F000AE900000000A0020B1900000AE860000CF
:10550000C58600000C4B994210B50C460BD10B49D7
:105510000B480C4A40F2E73301F083FF094840F2A0
:10552000E73101F0AAFED4E9003213605A6000238B
:10553000C4E9003310BD00BFC80100200491000081
:1055400006810000E2900000836810B504465BB954
:105550000B490C480C4A40F2832301F062FF0A48D1
:1055600040F2832101F089FEA0682146FFF7CAFFBF
:10557000637B23F0020363730023A36010BD00BFAD
:105580002591000006810000E290000038B5024637
:105590001448154D02F0A4FA044600B9EC68CAB9E3
:1055A000AB6863B91149124A1248892301F039FFE7
:1055B000114801F036FF0E48892101F05EFEAB680C
:1055C0005A7BD20606D1A26922B9DA897F2A01D98B
:1055D000EB6138BDAB68A34201D0FFF75FFEEC6121
:1055E000F7E700BF200A0020000A00203C910000DD
:1055F000E290000006810000AE90000070B590F9C6
:105600000D20437B002A044606DA03F07F03437330
:1056100001461F48FFF776FF637B63F07F036373E8
:105620001C4B9C4209D11C491C481D4ABA2301F05D
:10563000F8FE1B48BA2101F020FE1A4A1146556AAD
:1056400051F8203F8B4208BF0023002B38BF0023B6
:10565000CBB194F90E6093F90E0086420FD0801BF7
:1056600000280CDD5968C4E900310C605C6090686A
:10567000031B5842BDE870405841FFF787BFAB425B
:1056800001D01B68E4E7C4E900152C605462EEE722
:10569000200A0020C80100200491000006810000BB
:1056A000E2900000000A002070B504464FF020038D
:1056B000EFF3118583F31288BFF36F8F2A4801F04F
:1056C0007DF868B9294A2A492A48812301F0A9FEB0
:1056D0002549294801F0A5FE2448812101F0CDFD8E
:1056E000214801F089F8254B254A986811688842BD
:1056F000194618D1FFF7D2FD1B4801F06DF868B9C3
:105700001A4A20491B48AC2301F08BFE16491E485B
:1057100001F087FE1548AC2101F0AFFD85F311883B
:10572000BFF36F8F70BD00261660184A1268BAB1B9
:10573000C2897F2A14D8427BD20611D1144A90F92B
:105740000E60126896420BDB124A904208D01A692A
:10575000A24202DCFFF752FFCCE7121B1A61CBE733
:1057600000230B61C8E700BF300A002088860000D4
:10577000DA86000006810000EF860000000A0020A3
:105780002C0A0020AE860000C5860000380A0020E2
:10579000340A0020C801002070B590F90D20437B29
:1057A000002A04463EDBDA063CD18569002D39D15A
:1057B00063F07F0343731C4B984209D11B491C487B
:1057C0001C4ABA2301F02DFE1A48BA2101F055FDFA
:1057D00019490B4653F8200F984218BF0546002D73
:1057E0001A462B464D6A38BF0023B3B194F90E60B8
:1057F00093F90E0086420CD0801B002809DD5A6800
:10580000C4E9003214605C60BDE870400020FFF71E
:10581000BDBEAB4201D01B68E7E7C4E900252C60A0
:105820004C62F1E770BD00BFC80100200491000088
:1058300006810000E2900000000A002038B504460E
:105840004FF02003EFF3118583F31288BFF36F8FBE
:10585000174800F0B3FF68B9164A17491748812363
:1058600001F0DFFD1249164801F0DBFD11488121EE
:1058700001F003FD0E4800F0BFFF2046FFF78CFF4C
:105880000B4800F0A9FF68B90A4A0E490B48AC233F
:1058900001F0C7FD06490C4801F0C3FD0548AC21E5
:1058A00001F0EBFC85F31188BFF36F8F38BD00BFAB
:1058B000300A002088860000DA8600000681000099
:1058C000EF860000AE860000C586000038B50446AD
:1058D0004FF02003EFF3118583F31288BFF36F8F2E
:1058E0001D4800F06BFF68B91C4A1D491D48812303
:1058F00001F097FD18491C4801F093FD17488121DC
:1059000001F0BBFC144800F077FF637B5A0716D404
:10591000114800F061FF68B9104A14491148AC23DE
:1059200001F07FFD0C49124801F07BFD0B48AC21D2
:1059300001F0A3FC85F31188BFF36F8F38BD23F00E
:10594000040320466373FFF727FF29460248BDE89A
:105950003840FFF71FBD00BF300A002088860000D6
:10596000DA86000006810000EF860000AE860000A7
:10597000C586000070B504464FF02003EFF3118692
:1059800083F31288BFF36F8F204800F017FF68B9C8
:105990001F4A20492048812301F043FD1B491F482D
:1059A00001F03FFD1A48812101F067FC174800F023
:1059B00023FF14F80B3C13F0280F10D154F8103CBF
:1059C000A4F1180513B12846FFF7BEFD14F80B3CEF
:1059D00023F0140304F80B3C2846FFF7DDFE0B48C8
:1059E00000F0FAFE68B90A4A0D490B48AC2301F0F1
:1059F00018FD06490B4801F014FD0548AC2101F0E3
:105A00003CFC86F31188BFF36F8F70BD300A002015
:105A100088860000DA86000006810000EF8600001C
:105A2000AE860000C586000010B590F90D20437BBE
:105A3000002A044606DA03F07F0343730146064852
:105A4000FFF760FD054B9868031B5842BDE8104006
:105A50005841FFF79BBD00BF200A0020000A00202C
:105A600038B504460D46FFF7DFFF637B43F00203C2
:105A700063731DB3174BA5609C4209D116491748A3
:105A8000174ABA2301F0CDFC1548BA2101F0F5FB05
:105A90002B689D4208BF0023002B38BF00239BB119
:105AA00094F90E1093F90E20914208D0521A002A50
:105AB00005DD5A68C4E9003214605C6038BD6A686C
:105AC000934201D01B68EAE76B68C4E900531C608D
:105AD0006C60F3E7C801002004910000068100001B
